{
  "_format": "hh-sol-artifact-1",
  "contractName": "AccountFactory",
  "sourceName": "contracts/core/account/AccountFactory.sol",
  "abi": [
    {
      "inputs": [],
      "name": "Create2EmptyBytecode",
      "type": "error"
    },
    {
      "inputs": [],
      "name": "Create2FailedDeployment",
      "type": "error"
    },
    {
      "inputs": [
        {
          "internalType": "uint256",
          "name": "balance",
          "type": "uint256"
        },
        {
          "internalType": "uint256",
          "name": "needed",
          "type": "uint256"
        }
      ],
      "name": "Create2InsufficientBalance",
      "type": "error"
    },
    {
      "inputs": [
        {
          "internalType": "address",
          "name": "_owner",
          "type": "address"
        }
      ],
      "name": "createBaseAccount",
      "outputs": [
        {
          "internalType": "address",
          "name": "",
          "type": "address"
        }
      ],
      "stateMutability": "nonpayable",
      "type": "function"
    },
    {
      "inputs": [
        {
          "internalType": "address",
          "name": "_owner",
          "type": "address"
        }
      ],
      "name": "createRecoverableAccount",
      "outputs": [
        {
          "internalType": "address",
          "name": "",
          "type": "address"
        }
      ],
      "stateMutability": "nonpayable",
      "type": "function"
    }
  ],
  "bytecode": "0x608060405234801561001057600080fd5b50611996806100206000396000f3fe608060405234801561001057600080fd5b50600436106100365760003560e01c80630b3c54fa1461003b578063aabd8f9c1461006a575b600080fd5b61004e61004936600461022d565b61007d565b6040516001600160a01b03909116815260200160405180910390f35b61004e61007836600461022d565b610132565b6040516000906001600160a01b03831690829061009c60208201610213565b601f1982820381018352601f9091011660408181526001600160a01b03871660208301520160408051601f19818403018152908290526100df9291602001610286565b60405160208183030381529060405290506000610103838380519060200120610151565b90506001600160a01b0381163b1561011d57949350505050565b61012960008484610165565b95945050505050565b6040516000906001600160a01b03831690829061009c60208201610220565b600061015e8383306101e9565b9392505050565b6000834710156101955760405163392efb2b60e21b81524760048201526024810185905260440160405180910390fd5b81516000036101b757604051631328927760e21b815260040160405180910390fd5b8282516020840186f590506001600160a01b03811661015e57604051633a0ba96160e11b815260040160405180910390fd5b6000604051836040820152846020820152828152600b8101905060ff815360559020949350505050565b6108f4806102a483390190565b610dc980610b9883390190565b60006020828403121561023f57600080fd5b81356001600160a01b038116811461015e57600080fd5b6000815160005b81811015610277576020818501810151868301520161025d565b50600093019283525090919050565b600061029b6102958386610256565b84610256565b94935050505056fe60806040526000805534801561001457600080fd5b506040516108f43803806108f483398101604081905261003391610058565b600380546001600160a01b0319166001600160a01b0392909216919091179055610088565b60006020828403121561006a57600080fd5b81516001600160a01b038116811461008157600080fd5b9392505050565b61085d806100976000396000f3fe608060405234801561001057600080fd5b506004361061007d5760003560e01c8063614619541161005b57806361461954146100ba5780638da5cb5b146100c4578063dd97fe4d146100ef578063f5fd82f51461010257600080fd5b806306661abd1461008257806319822f7c1461009e5780632fb2b1ea146100b1575b600080fd5b61008b60025481565b6040519081526020015b60405180910390f35b61008b6100ac366004610648565b610115565b61008b60005481565b6100c2610183565b005b6003546100d7906001600160a01b031681565b6040516001600160a01b039091168152602001610095565b6001546100d7906001600160a01b031681565b6100c2610110366004610770565b61019a565b7f19457468657265756d205369676e6564204d6573736167653a0a3332000000006000908152601c839052603c8120819061015590866101000151610350565b6003549091506001600160a01b03808316911614610174576001610177565b60005b60ff1695945050505050565b60028054906000610193836107c1565b9190505550565b6001546001600160a01b0316156102135760405162461bcd60e51b815260206004820152603260248201527f50696c6f7473206f6e6c792063616e20626520696e206f6e65204169726c696e60448201527165206174207468652073616d652074696d6560701b60648201526084015b60405180910390fd5b6000839050806001600160a01b03166347535d7b6040518163ffffffff1660e01b8152600401602060405180830381865afa158015610256573d6000803e3d6000fd5b505050506040513d601f19601f8201168201806040525081019061027a91906107e8565b6102c65760405162461bcd60e51b815260206004820152601e60248201527f4169726c696e6520697320636c6f73656420617420746869732074696d650000604482015260640161020a565b604051637d1e479160e11b81526001600160a01b03848116600483015260ff8416602483015282169063fa3c8f2290604401600060405180830381600087803b15801561031257600080fd5b505af1158015610326573d6000803e3d6000fd5b5050600180546001600160a01b0319166001600160a01b0397909716969096179095555050505050565b600080600080610360868661037a565b92509250925061037082826103c7565b5090949350505050565b600080600083516041036103b45760208401516040850151606086015160001a6103a688828585610484565b9550955095505050506103c0565b50508151600091506002905b9250925092565b60008260038111156103db576103db610811565b036103e4575050565b60018260038111156103f8576103f8610811565b036104165760405163f645eedf60e01b815260040160405180910390fd5b600282600381111561042a5761042a610811565b0361044b5760405163fce698f760e01b81526004810182905260240161020a565b600382600381111561045f5761045f610811565b03610480576040516335e2f38360e21b81526004810182905260240161020a565b5050565b600080807f7fffffffffffffffffffffffffffffff5d576e7357a4501ddfe92f46681b20a08411156104bf5750600091506003905082610549565b604080516000808252602082018084528a905260ff891692820192909252606081018790526080810186905260019060a0016020604051602081039080840390855afa158015610513573d6000803e3d6000fd5b5050604051601f1901519150506001600160a01b03811661053f57506000925060019150829050610549565b9250600091508190505b9450945094915050565b634e487b7160e01b600052604160045260246000fd5b604051610120810167ffffffffffffffff8111828210171561058d5761058d610553565b60405290565b6001600160a01b03811681146105a857600080fd5b50565b80356105b681610593565b919050565b600082601f8301126105cc57600080fd5b813567ffffffffffffffff808211156105e7576105e7610553565b604051601f8301601f19908116603f0116810190828211818310171561060f5761060f610553565b8160405283815286602085880101111561062857600080fd5b836020870160208301376000602085830101528094505050505092915050565b60008060006060848603121561065d57600080fd5b833567ffffffffffffffff8082111561067557600080fd5b90850190610120828803121561068a57600080fd5b610692610569565b61069b836105ab565b8152602083013560208201526040830135828111156106b957600080fd5b6106c5898286016105bb565b6040830152506060830135828111156106dd57600080fd5b6106e9898286016105bb565b6060830152506080830135608082015260a083013560a082015260c083013560c082015260e08301358281111561071f57600080fd5b61072b898286016105bb565b60e083015250610100808401358381111561074557600080fd5b6107518a8287016105bb565b9183019190915250976020870135975060409096013595945050505050565b60008060006060848603121561078557600080fd5b833561079081610593565b925060208401356107a081610593565b9150604084013560ff811681146107b657600080fd5b809150509250925092565b6000600182016107e157634e487b7160e01b600052601160045260246000fd5b5060010190565b6000602082840312156107fa57600080fd5b8151801515811461080a57600080fd5b9392505050565b634e487b7160e01b600052602160045260246000fdfea2646970667358221220c0c9de869d5c726cb1f8dc2aa85948461b86799625acb942749cd47d2b0408b164736f6c6343000817003360c06040526000608081815260a082905261001c91906002610077565b506001600255600060035534801561003357600080fd5b50604051610dc9380380610dc9833981016040819052610052916100e4565b600080546001600160a01b0319166001600160a01b0392909216919091179055610114565b82600281019282156100bf579160200282015b828111156100bf57825182546001600160a01b0319166001600160a01b0390911617825560209092019160019091019061008a565b506100cb9291506100cf565b5090565b5b808211156100cb57600081556001016100d0565b6000602082840312156100f657600080fd5b81516001600160a01b038116811461010d57600080fd5b9392505050565b610ca6806101236000396000f3fe608060405234801561001057600080fd5b50600436106100a95760003560e01c80633b293f2c116100715780633b293f2c14610126578063478f808814610139578063614619541461014c578063cf30901214610154578063dd97fe4d1461015d578063f5fd82f51461017057600080fd5b806306661abd146100ae57806314bfd6d0146100ca57806319822f7c146100f55780632fb2b1ea1461010857806336533dd514610111575b600080fd5b6100b760055481565b6040519081526020015b60405180910390f35b6100dd6100d8366004610898565b610183565b6040516001600160a01b0390911681526020016100c1565b6100b76101033660046109a6565b6101a3565b6100b760035481565b61012461011f366004610adf565b6102af565b005b610124610134366004610b36565b610390565b610124610147366004610b36565b6103fb565b61012461049a565b6100b760025481565b6004546100dd906001600160a01b031681565b61012461017e366004610b91565b6104b1565b6000816002811061019357600080fd5b01546001600160a01b0316905081565b6000806101bd6101b285610662565b866101000151610695565b90506002546001036101fb576001600160a01b03811660008001546001600160a01b0316146101ed5760016101f0565b60005b60ff169150506102a8565b6001546001600160a01b0316806102595760405162461bcd60e51b815260206004820152601b60248201527f5265636f766572206163636f756e74206d75737420626520736574000000000060448201526064015b60405180910390fd5b6001600160a01b03821660008001546001600160a01b03161461029d57816001600160a01b0316816001600160a01b0316146102965760016102a0565b60006102a0565b60005b60ff16925050505b9392505050565b60006102c36102bd85610662565b84610695565b90506001600160a01b03811660008001546001600160a01b0316146102fa5760405162461bcd60e51b815260040161025090610bcf565b6002548260ff160361034e5760405162461bcd60e51b815260206004820152601c60248201527f547279696e6720746f20736574207468652073616d652076616c7565000000006044820152606401610250565b60ff821660028190556040519081527f39d284bdd9166b6ac6a2206fa4735b369e52c3d8097250c94c013a48574479859060200160405180910390a150505050565b600061039e6102bd85610662565b90506001600160a01b0381166000600101546001600160a01b0316146103d65760405162461bcd60e51b815260040161025090610bcf565b50600080546001600160a01b0319166001600160a01b03929092169190911790555050565b60006104096102bd85610662565b90506001600160a01b03811660008001546001600160a01b0316146104705760405162461bcd60e51b815260206004820181905260248201527f4f6e6c79206f776e6572206163636f756e742063616e2063616c6c20746869736044820152606401610250565b50600180546001600160a01b0319166001600160a01b039290921691909117905550506000600255565b600580549060006104aa83610c11565b9190505550565b6004546001600160a01b0316156105255760405162461bcd60e51b815260206004820152603260248201527f50696c6f7473206f6e6c792063616e20626520696e206f6e65204169726c696e60448201527165206174207468652073616d652074696d6560701b6064820152608401610250565b6000839050806001600160a01b03166347535d7b6040518163ffffffff1660e01b8152600401602060405180830381865afa158015610568573d6000803e3d6000fd5b505050506040513d601f19601f8201168201806040525081019061058c9190610c38565b6105d85760405162461bcd60e51b815260206004820152601e60248201527f4169726c696e6520697320636c6f73656420617420746869732074696d6500006044820152606401610250565b604051637d1e479160e11b81526001600160a01b03848116600483015260ff8416602483015282169063fa3c8f2290604401600060405180830381600087803b15801561062457600080fd5b505af1158015610638573d6000803e3d6000fd5b5050600480546001600160a01b0319166001600160a01b0397909716969096179095555050505050565b7f19457468657265756d205369676e6564204d6573736167653a0a3332000000006000908152601c91909152603c902090565b6000806000806106a586866106bf565b9250925092506106b5828261070c565b5090949350505050565b600080600083516041036106f95760208401516040850151606086015160001a6106eb888285856107c9565b955095509550505050610705565b50508151600091506002905b9250925092565b600082600381111561072057610720610c5a565b03610729575050565b600182600381111561073d5761073d610c5a565b0361075b5760405163f645eedf60e01b815260040160405180910390fd5b600282600381111561076f5761076f610c5a565b036107905760405163fce698f760e01b815260048101829052602401610250565b60038260038111156107a4576107a4610c5a565b036107c5576040516335e2f38360e21b815260048101829052602401610250565b5050565b600080807f7fffffffffffffffffffffffffffffff5d576e7357a4501ddfe92f46681b20a0841115610804575060009150600390508261088e565b604080516000808252602082018084528a905260ff891692820192909252606081018790526080810186905260019060a0016020604051602081039080840390855afa158015610858573d6000803e3d6000fd5b5050604051601f1901519150506001600160a01b0381166108845750600092506001915082905061088e565b9250600091508190505b9450945094915050565b6000602082840312156108aa57600080fd5b5035919050565b634e487b7160e01b600052604160045260246000fd5b604051610120810167ffffffffffffffff811182821017156108eb576108eb6108b1565b60405290565b6001600160a01b038116811461090657600080fd5b50565b8035610914816108f1565b919050565b600082601f83011261092a57600080fd5b813567ffffffffffffffff80821115610945576109456108b1565b604051601f8301601f19908116603f0116810190828211818310171561096d5761096d6108b1565b8160405283815286602085880101111561098657600080fd5b836020870160208301376000602085830101528094505050505092915050565b6000806000606084860312156109bb57600080fd5b833567ffffffffffffffff808211156109d357600080fd5b9085019061012082880312156109e857600080fd5b6109f06108c7565b6109f983610909565b815260208301356020820152604083013582811115610a1757600080fd5b610a2389828601610919565b604083015250606083013582811115610a3b57600080fd5b610a4789828601610919565b6060830152506080830135608082015260a083013560a082015260c083013560c082015260e083013582811115610a7d57600080fd5b610a8989828601610919565b60e0830152506101008084013583811115610aa357600080fd5b610aaf8a828701610919565b9183019190915250976020870135975060409096013595945050505050565b803560ff8116811461091457600080fd5b600080600060608486031215610af457600080fd5b83359250602084013567ffffffffffffffff811115610b1257600080fd5b610b1e86828701610919565b925050610b2d60408501610ace565b90509250925092565b600080600060608486031215610b4b57600080fd5b83359250602084013567ffffffffffffffff811115610b6957600080fd5b610b7586828701610919565b9250506040840135610b86816108f1565b809150509250925092565b600080600060608486031215610ba657600080fd5b8335610bb1816108f1565b92506020840135610bc1816108f1565b9150610b2d60408501610ace565b60208082526022908201527f4f6e6c79207265636f766572206163636f756e742063616e2063616c6c207468604082015261697360f01b606082015260800190565b600060018201610c3157634e487b7160e01b600052601160045260246000fd5b5060010190565b600060208284031215610c4a57600080fd5b815180151581146102a857600080fd5b634e487b7160e01b600052602160045260246000fdfea2646970667358221220ff1877b4b635100c454d682142a8394bc1b06df6ab7612fb62a56ee4ef67bc3764736f6c63430008170033a26469706673582212200ebabfb77c7eb31c3b46250ea8b3051281d4039d96a17a1393a19843cb22f19464736f6c63430008170033",
  "linkReferences": {},
  "deployedLinkReferences": {}
}