{
  "_format": "hh-sol-artifact-1",
  "contractName": "BaseAccount",
  "sourceName": "contracts/core/account/BaseAccount.sol",
  "abi": [
    {
      "inputs": [
        {
          "internalType": "address",
          "name": "_owner",
          "type": "address"
        }
      ],
      "stateMutability": "nonpayable",
      "type": "constructor"
    },
    {
      "inputs": [],
      "name": "ECDSAInvalidSignature",
      "type": "error"
    },
    {
      "inputs": [
        {
          "internalType": "uint256",
          "name": "length",
          "type": "uint256"
        }
      ],
      "name": "ECDSAInvalidSignatureLength",
      "type": "error"
    },
    {
      "inputs": [
        {
          "internalType": "bytes32",
          "name": "s",
          "type": "bytes32"
        }
      ],
      "name": "ECDSAInvalidSignatureS",
      "type": "error"
    },
    {
      "inputs": [],
      "name": "airlineAddr",
      "outputs": [
        {
          "internalType": "address",
          "name": "",
          "type": "address"
        }
      ],
      "stateMutability": "view",
      "type": "function"
    },
    {
      "inputs": [
        {
          "internalType": "address payable",
          "name": "_airline",
          "type": "address"
        },
        {
          "internalType": "address",
          "name": "_pilot",
          "type": "address"
        },
        {
          "internalType": "uint8",
          "name": "_level",
          "type": "uint8"
        }
      ],
      "name": "connectToAirline",
      "outputs": [],
      "stateMutability": "nonpayable",
      "type": "function"
    },
    {
      "inputs": [],
      "name": "count",
      "outputs": [
        {
          "internalType": "uint256",
          "name": "",
          "type": "uint256"
        }
      ],
      "stateMutability": "view",
      "type": "function"
    },
    {
      "inputs": [],
      "name": "execute",
      "outputs": [],
      "stateMutability": "nonpayable",
      "type": "function"
    },
    {
      "inputs": [],
      "name": "flightTime",
      "outputs": [
        {
          "internalType": "uint256",
          "name": "",
          "type": "uint256"
        }
      ],
      "stateMutability": "view",
      "type": "function"
    },
    {
      "inputs": [],
      "name": "owner",
      "outputs": [
        {
          "internalType": "address",
          "name": "",
          "type": "address"
        }
      ],
      "stateMutability": "view",
      "type": "function"
    },
    {
      "inputs": [
        {
          "components": [
            {
              "internalType": "address",
              "name": "sender",
              "type": "address"
            },
            {
              "internalType": "uint256",
              "name": "nonce",
              "type": "uint256"
            },
            {
              "internalType": "bytes",
              "name": "initCode",
              "type": "bytes"
            },
            {
              "internalType": "bytes",
              "name": "callData",
              "type": "bytes"
            },
            {
              "internalType": "bytes32",
              "name": "accountGasLimits",
              "type": "bytes32"
            },
            {
              "internalType": "uint256",
              "name": "preVerificationGas",
              "type": "uint256"
            },
            {
              "internalType": "bytes32",
              "name": "gasFees",
              "type": "bytes32"
            },
            {
              "internalType": "bytes",
              "name": "paymasterAndData",
              "type": "bytes"
            },
            {
              "internalType": "bytes",
              "name": "signature",
              "type": "bytes"
            }
          ],
          "internalType": "struct PackedUserOperation",
          "name": "userOp",
          "type": "tuple"
        },
        {
          "internalType": "bytes32",
          "name": "userOpHash",
          "type": "bytes32"
        },
        {
          "internalType": "uint256",
          "name": "",
          "type": "uint256"
        }
      ],
      "name": "validateUserOp",
      "outputs": [
        {
          "internalType": "uint256",
          "name": "validationData",
          "type": "uint256"
        }
      ],
      "stateMutability": "view",
      "type": "function"
    }
  ],
  "bytecode": "0x60806040526000805534801561001457600080fd5b506040516108f43803806108f483398101604081905261003391610058565b600380546001600160a01b0319166001600160a01b0392909216919091179055610088565b60006020828403121561006a57600080fd5b81516001600160a01b038116811461008157600080fd5b9392505050565b61085d806100976000396000f3fe608060405234801561001057600080fd5b506004361061007d5760003560e01c8063614619541161005b57806361461954146100ba5780638da5cb5b146100c4578063dd97fe4d146100ef578063f5fd82f51461010257600080fd5b806306661abd1461008257806319822f7c1461009e5780632fb2b1ea146100b1575b600080fd5b61008b60025481565b6040519081526020015b60405180910390f35b61008b6100ac366004610648565b610115565b61008b60005481565b6100c2610183565b005b6003546100d7906001600160a01b031681565b6040516001600160a01b039091168152602001610095565b6001546100d7906001600160a01b031681565b6100c2610110366004610770565b61019a565b7f19457468657265756d205369676e6564204d6573736167653a0a3332000000006000908152601c839052603c8120819061015590866101000151610350565b6003549091506001600160a01b03808316911614610174576001610177565b60005b60ff1695945050505050565b60028054906000610193836107c1565b9190505550565b6001546001600160a01b0316156102135760405162461bcd60e51b815260206004820152603260248201527f50696c6f7473206f6e6c792063616e20626520696e206f6e65204169726c696e60448201527165206174207468652073616d652074696d6560701b60648201526084015b60405180910390fd5b6000839050806001600160a01b03166347535d7b6040518163ffffffff1660e01b8152600401602060405180830381865afa158015610256573d6000803e3d6000fd5b505050506040513d601f19601f8201168201806040525081019061027a91906107e8565b6102c65760405162461bcd60e51b815260206004820152601e60248201527f4169726c696e6520697320636c6f73656420617420746869732074696d650000604482015260640161020a565b604051637d1e479160e11b81526001600160a01b03848116600483015260ff8416602483015282169063fa3c8f2290604401600060405180830381600087803b15801561031257600080fd5b505af1158015610326573d6000803e3d6000fd5b5050600180546001600160a01b0319166001600160a01b0397909716969096179095555050505050565b600080600080610360868661037a565b92509250925061037082826103c7565b5090949350505050565b600080600083516041036103b45760208401516040850151606086015160001a6103a688828585610484565b9550955095505050506103c0565b50508151600091506002905b9250925092565b60008260038111156103db576103db610811565b036103e4575050565b60018260038111156103f8576103f8610811565b036104165760405163f645eedf60e01b815260040160405180910390fd5b600282600381111561042a5761042a610811565b0361044b5760405163fce698f760e01b81526004810182905260240161020a565b600382600381111561045f5761045f610811565b03610480576040516335e2f38360e21b81526004810182905260240161020a565b5050565b600080807f7fffffffffffffffffffffffffffffff5d576e7357a4501ddfe92f46681b20a08411156104bf5750600091506003905082610549565b604080516000808252602082018084528a905260ff891692820192909252606081018790526080810186905260019060a0016020604051602081039080840390855afa158015610513573d6000803e3d6000fd5b5050604051601f1901519150506001600160a01b03811661053f57506000925060019150829050610549565b9250600091508190505b9450945094915050565b634e487b7160e01b600052604160045260246000fd5b604051610120810167ffffffffffffffff8111828210171561058d5761058d610553565b60405290565b6001600160a01b03811681146105a857600080fd5b50565b80356105b681610593565b919050565b600082601f8301126105cc57600080fd5b813567ffffffffffffffff808211156105e7576105e7610553565b604051601f8301601f19908116603f0116810190828211818310171561060f5761060f610553565b8160405283815286602085880101111561062857600080fd5b836020870160208301376000602085830101528094505050505092915050565b60008060006060848603121561065d57600080fd5b833567ffffffffffffffff8082111561067557600080fd5b90850190610120828803121561068a57600080fd5b610692610569565b61069b836105ab565b8152602083013560208201526040830135828111156106b957600080fd5b6106c5898286016105bb565b6040830152506060830135828111156106dd57600080fd5b6106e9898286016105bb565b6060830152506080830135608082015260a083013560a082015260c083013560c082015260e08301358281111561071f57600080fd5b61072b898286016105bb565b60e083015250610100808401358381111561074557600080fd5b6107518a8287016105bb565b9183019190915250976020870135975060409096013595945050505050565b60008060006060848603121561078557600080fd5b833561079081610593565b925060208401356107a081610593565b9150604084013560ff811681146107b657600080fd5b809150509250925092565b6000600182016107e157634e487b7160e01b600052601160045260246000fd5b5060010190565b6000602082840312156107fa57600080fd5b8151801515811461080a57600080fd5b9392505050565b634e487b7160e01b600052602160045260246000fdfea2646970667358221220c0c9de869d5c726cb1f8dc2aa85948461b86799625acb942749cd47d2b0408b164736f6c63430008170033",
  "linkReferences": {},
  "deployedLinkReferences": {}
}