{
  "_format": "hh-sol-artifact-1",
  "contractName": "StakingAirline",
  "sourceName": "contracts/core/StakingAirline.sol",
  "abi": [
    {
      "inputs": [
        {
          "internalType": "uint80",
          "name": "_timeUnit",
          "type": "uint80"
        },
        {
          "internalType": "address",
          "name": "_defaultAdmin",
          "type": "address"
        },
        {
          "internalType": "uint256",
          "name": "_rewardRatioNumerator",
          "type": "uint256"
        },
        {
          "internalType": "uint256",
          "name": "_rewardRatioDenominator",
          "type": "uint256"
        },
        {
          "internalType": "address",
          "name": "_stakingToken",
          "type": "address"
        },
        {
          "internalType": "address",
          "name": "_rewardToken",
          "type": "address"
        },
        {
          "internalType": "address",
          "name": "_nativeTokenWrapper",
          "type": "address"
        }
      ],
      "stateMutability": "nonpayable",
      "type": "constructor"
    },
    {
      "inputs": [],
      "name": "ContractMetadataUnauthorized",
      "type": "error"
    },
    {
      "inputs": [
        {
          "internalType": "uint256",
          "name": "expected",
          "type": "uint256"
        },
        {
          "internalType": "uint256",
          "name": "actual",
          "type": "uint256"
        }
      ],
      "name": "CurrencyTransferLibMismatchedValue",
      "type": "error"
    },
    {
      "inputs": [],
      "name": "OwnableUnauthorized",
      "type": "error"
    },
    {
      "anonymous": false,
      "inputs": [
        {
          "indexed": false,
          "internalType": "string",
          "name": "prevURI",
          "type": "string"
        },
        {
          "indexed": false,
          "internalType": "string",
          "name": "newURI",
          "type": "string"
        }
      ],
      "name": "ContractURIUpdated",
      "type": "event"
    },
    {
      "anonymous": false,
      "inputs": [
        {
          "indexed": false,
          "internalType": "uint256",
          "name": "rewards",
          "type": "uint256"
        }
      ],
      "name": "LogRewards",
      "type": "event"
    },
    {
      "anonymous": false,
      "inputs": [
        {
          "indexed": true,
          "internalType": "address",
          "name": "prevOwner",
          "type": "address"
        },
        {
          "indexed": true,
          "internalType": "address",
          "name": "newOwner",
          "type": "address"
        }
      ],
      "name": "OwnerUpdated",
      "type": "event"
    },
    {
      "anonymous": false,
      "inputs": [
        {
          "indexed": true,
          "internalType": "address",
          "name": "staker",
          "type": "address"
        },
        {
          "indexed": false,
          "internalType": "uint256",
          "name": "rewardAmount",
          "type": "uint256"
        }
      ],
      "name": "RewardsClaimed",
      "type": "event"
    },
    {
      "anonymous": false,
      "inputs": [
        {
          "indexed": true,
          "internalType": "address",
          "name": "staker",
          "type": "address"
        },
        {
          "indexed": false,
          "internalType": "uint256",
          "name": "amount",
          "type": "uint256"
        }
      ],
      "name": "TokensStaked",
      "type": "event"
    },
    {
      "anonymous": false,
      "inputs": [
        {
          "indexed": true,
          "internalType": "address",
          "name": "staker",
          "type": "address"
        },
        {
          "indexed": false,
          "internalType": "uint256",
          "name": "amount",
          "type": "uint256"
        }
      ],
      "name": "TokensWithdrawn",
      "type": "event"
    },
    {
      "anonymous": false,
      "inputs": [
        {
          "indexed": false,
          "internalType": "uint256",
          "name": "oldAmount",
          "type": "uint256"
        },
        {
          "indexed": false,
          "internalType": "uint256",
          "name": "newAmount",
          "type": "uint256"
        }
      ],
      "name": "UpdatedMinStakeAmount",
      "type": "event"
    },
    {
      "anonymous": false,
      "inputs": [
        {
          "indexed": false,
          "internalType": "uint256",
          "name": "oldNumerator",
          "type": "uint256"
        },
        {
          "indexed": false,
          "internalType": "uint256",
          "name": "newNumerator",
          "type": "uint256"
        },
        {
          "indexed": false,
          "internalType": "uint256",
          "name": "oldDenominator",
          "type": "uint256"
        },
        {
          "indexed": false,
          "internalType": "uint256",
          "name": "newDenominator",
          "type": "uint256"
        }
      ],
      "name": "UpdatedRewardRatio",
      "type": "event"
    },
    {
      "anonymous": false,
      "inputs": [
        {
          "indexed": false,
          "internalType": "uint256",
          "name": "oldTimeUnit",
          "type": "uint256"
        },
        {
          "indexed": false,
          "internalType": "uint256",
          "name": "newTimeUnit",
          "type": "uint256"
        }
      ],
      "name": "UpdatedTimeUnit",
      "type": "event"
    },
    {
      "inputs": [],
      "name": "claimRewards",
      "outputs": [],
      "stateMutability": "nonpayable",
      "type": "function"
    },
    {
      "inputs": [],
      "name": "contractURI",
      "outputs": [
        {
          "internalType": "string",
          "name": "",
          "type": "string"
        }
      ],
      "stateMutability": "view",
      "type": "function"
    },
    {
      "inputs": [
        {
          "internalType": "uint256",
          "name": "_amount",
          "type": "uint256"
        }
      ],
      "name": "depositRewardTokens",
      "outputs": [],
      "stateMutability": "payable",
      "type": "function"
    },
    {
      "inputs": [],
      "name": "getRewardRatio",
      "outputs": [
        {
          "internalType": "uint256",
          "name": "_numerator",
          "type": "uint256"
        },
        {
          "internalType": "uint256",
          "name": "_denominator",
          "type": "uint256"
        }
      ],
      "stateMutability": "view",
      "type": "function"
    },
    {
      "inputs": [],
      "name": "getRewardTokenBalance",
      "outputs": [
        {
          "internalType": "uint256",
          "name": "",
          "type": "uint256"
        }
      ],
      "stateMutability": "view",
      "type": "function"
    },
    {
      "inputs": [
        {
          "internalType": "address",
          "name": "_staker",
          "type": "address"
        }
      ],
      "name": "getStakeInfo",
      "outputs": [
        {
          "internalType": "uint256",
          "name": "_tokensStaked",
          "type": "uint256"
        },
        {
          "internalType": "uint256",
          "name": "_rewards",
          "type": "uint256"
        }
      ],
      "stateMutability": "view",
      "type": "function"
    },
    {
      "inputs": [],
      "name": "getTimeUnit",
      "outputs": [
        {
          "internalType": "uint256",
          "name": "_timeUnit",
          "type": "uint256"
        }
      ],
      "stateMutability": "view",
      "type": "function"
    },
    {
      "inputs": [
        {
          "internalType": "bytes[]",
          "name": "data",
          "type": "bytes[]"
        }
      ],
      "name": "multicall",
      "outputs": [
        {
          "internalType": "bytes[]",
          "name": "results",
          "type": "bytes[]"
        }
      ],
      "stateMutability": "nonpayable",
      "type": "function"
    },
    {
      "inputs": [],
      "name": "owner",
      "outputs": [
        {
          "internalType": "address",
          "name": "",
          "type": "address"
        }
      ],
      "stateMutability": "view",
      "type": "function"
    },
    {
      "inputs": [],
      "name": "rewardToken",
      "outputs": [
        {
          "internalType": "address",
          "name": "",
          "type": "address"
        }
      ],
      "stateMutability": "view",
      "type": "function"
    },
    {
      "inputs": [],
      "name": "rewardTokenDecimals",
      "outputs": [
        {
          "internalType": "uint16",
          "name": "",
          "type": "uint16"
        }
      ],
      "stateMutability": "view",
      "type": "function"
    },
    {
      "inputs": [
        {
          "internalType": "string",
          "name": "_uri",
          "type": "string"
        }
      ],
      "name": "setContractURI",
      "outputs": [],
      "stateMutability": "nonpayable",
      "type": "function"
    },
    {
      "inputs": [
        {
          "internalType": "address",
          "name": "_newOwner",
          "type": "address"
        }
      ],
      "name": "setOwner",
      "outputs": [],
      "stateMutability": "nonpayable",
      "type": "function"
    },
    {
      "inputs": [
        {
          "internalType": "uint256",
          "name": "_numerator",
          "type": "uint256"
        },
        {
          "internalType": "uint256",
          "name": "_denominator",
          "type": "uint256"
        }
      ],
      "name": "setRewardRatio",
      "outputs": [],
      "stateMutability": "nonpayable",
      "type": "function"
    },
    {
      "inputs": [
        {
          "internalType": "uint80",
          "name": "_timeUnit",
          "type": "uint80"
        }
      ],
      "name": "setTimeUnit",
      "outputs": [],
      "stateMutability": "nonpayable",
      "type": "function"
    },
    {
      "inputs": [
        {
          "internalType": "uint256",
          "name": "_amount",
          "type": "uint256"
        }
      ],
      "name": "stake",
      "outputs": [],
      "stateMutability": "payable",
      "type": "function"
    },
    {
      "inputs": [
        {
          "internalType": "address",
          "name": "",
          "type": "address"
        }
      ],
      "name": "stakers",
      "outputs": [
        {
          "internalType": "uint128",
          "name": "timeOfLastUpdate",
          "type": "uint128"
        },
        {
          "internalType": "uint64",
          "name": "conditionIdOflastUpdate",
          "type": "uint64"
        },
        {
          "internalType": "uint256",
          "name": "amountStaked",
          "type": "uint256"
        },
        {
          "internalType": "uint256",
          "name": "unclaimedRewards",
          "type": "uint256"
        }
      ],
      "stateMutability": "view",
      "type": "function"
    },
    {
      "inputs": [
        {
          "internalType": "uint256",
          "name": "",
          "type": "uint256"
        }
      ],
      "name": "stakersArray",
      "outputs": [
        {
          "internalType": "address",
          "name": "",
          "type": "address"
        }
      ],
      "stateMutability": "view",
      "type": "function"
    },
    {
      "inputs": [],
      "name": "stakingToken",
      "outputs": [
        {
          "internalType": "address",
          "name": "",
          "type": "address"
        }
      ],
      "stateMutability": "view",
      "type": "function"
    },
    {
      "inputs": [],
      "name": "stakingTokenBalance",
      "outputs": [
        {
          "internalType": "uint256",
          "name": "",
          "type": "uint256"
        }
      ],
      "stateMutability": "view",
      "type": "function"
    },
    {
      "inputs": [],
      "name": "stakingTokenDecimals",
      "outputs": [
        {
          "internalType": "uint16",
          "name": "",
          "type": "uint16"
        }
      ],
      "stateMutability": "view",
      "type": "function"
    },
    {
      "inputs": [
        {
          "internalType": "uint256",
          "name": "_amount",
          "type": "uint256"
        }
      ],
      "name": "withdraw",
      "outputs": [],
      "stateMutability": "nonpayable",
      "type": "function"
    },
    {
      "inputs": [
        {
          "internalType": "uint256",
          "name": "_amount",
          "type": "uint256"
        }
      ],
      "name": "withdrawRewardTokens",
      "outputs": [],
      "stateMutability": "nonpayable",
      "type": "function"
    },
    {
      "stateMutability": "payable",
      "type": "receive"
    }
  ],
  "bytecode": "0x6101206040523480156200001257600080fd5b5060405162003538380380620035388339810160408190526200003591620004d7565b868686868686868083846001600160a01b031663313ce5676040518163ffffffff1660e01b8152600401602060405180830381865afa1580156200007d573d6000803e3d6000fd5b505050506040513d601f19601f82011682018060405250810190620000a3919062000567565b60ff16846001600160a01b031663313ce5676040518163ffffffff1660e01b8152600401602060405180830381865afa158015620000e5573d6000803e3d6000fd5b505050506040513d601f19601f820116820180604052508101906200010b919062000567565b600160025560ff166001600160a01b038316158015906200013457506001600160a01b03841615155b620001725760405162461bcd60e51b815260206004820152600960248201526806164647265737320360bc1b60448201526064015b60405180910390fd5b61ffff82161580159062000189575061ffff811615155b620001c45760405162461bcd60e51b815260206004820152600a6024820152690646563696d616c7320360b41b604482015260640162000169565b6001600160a01b039384166080529190921660a05261ffff91821660c0521660e052620001f18662000298565b620001fe878686620002ea565b826001600160a01b0316826001600160a01b031603620002775760405162461bcd60e51b815260206004820152602d60248201527f52657761726420546f6b656e20616e64205374616b696e6720546f6b656e206360448201526c30b713ba1031329039b0b6b29760991b606482015260840162000169565b506001600160a01b03166101005250620005ef9a5050505050505050505050565b600180546001600160a01b038381166001600160a01b0319831681179093556040519116919082907f8292fce18fa69edf4db7b94ea2e58241df0ae57f97e0a6c9b29067028bf92d7690600090a35050565b806000036200032a5760405162461bcd60e51b815260206004820152600b60248201526a064697669646520627920360ac1b604482015260640162000169565b826001600160501b0316600003620003855760405162461bcd60e51b815260206004820152601460248201527f74696d652d756e69742063616e27742062652030000000000000000000000000604482015260640162000169565b600380546001600160401b0316906001906000620003a48385620005a9565b82546001600160401b039182166101009390930a9283029190920219909116179055506040805160a0810182526001600160501b03808716825242811660208084019182526000848601818152606086018a8152608087018a815289845260079094529690912094518554935191518516600160a01b02600160a01b600160f01b03199286166a0100000000000000000000026001600160a01b0319909516919095161792909217919091169190911782559151600182015590516002909101558015620004b45742600760006200047e600185620005d3565b815260200190815260200160002060000160146101000a8154816001600160501b0302191690836001600160501b031602179055505b50505050565b80516001600160a01b0381168114620004d257600080fd5b919050565b600080600080600080600060e0888a031215620004f357600080fd5b87516001600160501b03811681146200050b57600080fd5b96506200051b60208901620004ba565b955060408801519450606088015193506200053960808901620004ba565b92506200054960a08901620004ba565b91506200055960c08901620004ba565b905092959891949750929550565b6000602082840312156200057a57600080fd5b815160ff811681146200058c57600080fd5b9392505050565b634e487b7160e01b600052601160045260246000fd5b6001600160401b03818116838216019080821115620005cc57620005cc62000593565b5092915050565b81810381811115620005e957620005e962000593565b92915050565b60805160a05160c05160e05161010051612e71620006c760003960008181610553015281816111c001528181611387015281816113cb01528181611486015261249b0152600081816104010152611f330152600081816104a80152611f670152600081816102a30152818161120c01528181611250015281816117ac015281816119b101528181611a440152611bb4015260008181610153015281816111e401528181611276015281816113f1015281816114aa015281816117d0015281816119e101528181611bd801526124bf0152612e716000f3fe6080604052600436106101435760003560e01c806393ce5343116100b6578063b9f7a7b51161006f578063b9f7a7b514610496578063c3453153146104ca578063cb43b2dd146104ea578063d68124c71461050a578063e8a3d4851461051f578063f7c618c11461054157600080fd5b806393ce5343146103b057806397e1b4bc146103c55780639bdcecd1146103ef578063a694fc3a14610436578063ac9650d814610449578063b218f0691461047657600080fd5b80635357e916116101085780635357e9161461025457806372f702f3146102915780638caaa271146102c55780638da5cb5b146102e95780639168ae7214610307578063938e3d7b1461039057600080fd5b80621b7934146101cc57806313af4035146101ec57806316c621e01461020c5780632e1a7d4d1461021f578063372500ab1461023f57600080fd5b366101c757336001600160a01b037f000000000000000000000000000000000000000000000000000000000000000016146101c55760405162461bcd60e51b815260206004820181905260248201527f63616c6c6572206e6f74206e617469766520746f6b656e20777261707065722e60448201526064015b60405180910390fd5b005b600080fd5b3480156101d857600080fd5b506101c56101e7366004612704565b610575565b3480156101f857600080fd5b506101c5610207366004612726565b6106e5565b6101c561021a36600461274f565b610716565b34801561022b57600080fd5b506101c561023a36600461274f565b61074c565b34801561024b57600080fd5b506101c561077a565b34801561026057600080fd5b5061027461026f36600461274f565b6107ae565b6040516001600160a01b0390911681526020015b60405180910390f35b34801561029d57600080fd5b506102747f000000000000000000000000000000000000000000000000000000000000000081565b3480156102d157600080fd5b506102db60045481565b604051908152602001610288565b3480156102f557600080fd5b506001546001600160a01b0316610274565b34801561031357600080fd5b5061035e610322366004612726565b6006602052600090815260409020805460018201546002909201546001600160801b03821692600160801b9092046001600160401b0316919084565b604080516001600160801b0390951685526001600160401b039093166020850152918301526060820152608001610288565b34801561039c57600080fd5b506101c56103ab36600461277e565b6107d8565b3480156103bc57600080fd5b506008546102db565b3480156103d157600080fd5b506103da610806565b60408051928352602083019190915201610288565b3480156103fb57600080fd5b506104237f000000000000000000000000000000000000000000000000000000000000000081565b60405161ffff9091168152602001610288565b6101c561044436600461274f565b61088c565b34801561045557600080fd5b5061046961046436600461282e565b6108ba565b60405161028891906128f2565b34801561048257600080fd5b506101c5610491366004612956565b610a20565b3480156104a257600080fd5b506104237f000000000000000000000000000000000000000000000000000000000000000081565b3480156104d657600080fd5b506103da6104e5366004612726565b610b74565b3480156104f657600080fd5b506101c561050536600461274f565b610ba1565b34801561051657600080fd5b506102db610bcf565b34801561052b57600080fd5b50610534610c17565b604051610288919061297f565b34801561054d57600080fd5b506102747f000000000000000000000000000000000000000000000000000000000000000081565b61057d610ca5565b6105995760405162461bcd60e51b81526004016101bc90612992565b60035460009060079082906105b9906001906001600160401b03166129d0565b6001600160401b031681526020808201929092526040908101600020815160a08101835281546001600160501b038082168352600160501b8204811695830195909552600160a01b900490931691830191909152600181015460608301819052600290910154608083015290915083141580610639575080608001518214155b6106855760405162461bcd60e51b815260206004820152601760248201527f52657761726420726174696f20756e6368616e6765642e00000000000000000060448201526064016101bc565b8051610692908484610cd2565b60608082015160808084015160408051938452602084018890528301529181018490527feb6684a1e7c9bd2adc792fb253558f022bcbef39fb6ad31dc58cdfefdd5b5190910160405180910390a1505050565b6106ed610ca5565b61070a576040516316ccb9cb60e11b815260040160405180910390fd5b61071381610e8c565b50565b60028054036107375760405162461bcd60e51b81526004016101bc906129f7565b6002805561074481610ede565b506001600255565b600280540361076d5760405162461bcd60e51b81526004016101bc906129f7565b6002805561074481610ee7565b600280540361079b5760405162461bcd60e51b81526004016101bc906129f7565b600280556107a7610ef0565b6001600255565b600581815481106107be57600080fd5b6000918252602090912001546001600160a01b0316905081565b6107e0610ca5565b6107fd57604051639f7f092560e01b815260040160405180910390fd5b61071381610fab565b60035460009081906007908290610828906001906001600160401b03166129d0565b6001600160401b03168152602001908152602001600020600101549150600760006001600360009054906101000a90046001600160401b031661086b91906129d0565b6001600160401b031681526020019081526020016000206002015490509091565b60028054036108ad5760405162461bcd60e51b81526004016101bc906129f7565b600280556107448161107a565b6060816001600160401b038111156108d4576108d4612768565b60405190808252806020026020018201604052801561090757816020015b60608152602001906001900390816108f25790505b509050336000805b84811015610a1657811561098e5761096c3087878481811061093357610933612a2e565b90506020028101906109459190612a44565b8660405160200161095893929190612a8a565b6040516020818303038152906040526110d3565b84828151811061097e5761097e612a2e565b6020026020010181905250610a0e565b6109f0308787848181106109a4576109a4612a2e565b90506020028101906109b69190612a44565b8080601f0160208091040260200160405190810160405280939291908181526020018383808284376000920191909152506110d392505050565b848281518110610a0257610a02612a2e565b60200260200101819052505b60010161090f565b5050505b92915050565b610a28610ca5565b610a445760405162461bcd60e51b81526004016101bc90612992565b6003546000906007908290610a64906001906001600160401b03166129d0565b6001600160401b031681526020808201929092526040908101600020815160a08101835281546001600160501b03808216808452600160501b8304821696840196909652600160a01b9091048116938201939093526001820154606082015260029091015460808201529250831603610b165760405162461bcd60e51b81526020600482015260146024820152732a34b6b296bab734ba103ab731b430b733b2b21760611b60448201526064016101bc565b610b298282606001518360800151610cd2565b8051604080516001600160501b03928316815291841660208301527fd968de290ed68f978b9e4816f7d4be9ef46189fe8eeb3eeb86199e7229cf2de091015b60405180910390a15050565b6001600160a01b03811660009081526006602052604081206001015490610b9a836110ff565b9050915091565b6002805403610bc25760405162461bcd60e51b81526004016101bc906129f7565b600280556107448161116f565b6003546000906007908290610bef906001906001600160401b03166129d0565b6001600160401b031681526020810191909152604001600020546001600160501b0316919050565b60008054610c2490612ab0565b80601f0160208091040260200160405190810160405280929190818152602001828054610c5090612ab0565b8015610c9d5780601f10610c7257610100808354040283529160200191610c9d565b820191906000526020600020905b815481529060010190602001808311610c8057829003601f168201915b505050505081565b6000610cb96001546001600160a01b031690565b6001600160a01b0316336001600160a01b031614905090565b80600003610d105760405162461bcd60e51b815260206004820152600b60248201526a064697669646520627920360ac1b60448201526064016101bc565b826001600160501b0316600003610d605760405162461bcd60e51b8152602060048201526014602482015273074696d652d756e69742063616e277420626520360641b60448201526064016101bc565b600380546001600160401b0316906001906000610d7d8385612aea565b82546001600160401b039182166101009390930a9283029190920219909116179055506040805160a0810182526001600160501b03808716825242811660208084019182526000848601818152606086018a8152608087018a815289845260079094529690912094518554935191518516600160a01b0269ffffffffffffffffffff60a01b19928616600160501b026001600160a01b0319909516919095161792909217919091169190911782559151600182015590516002909101558015610e86574260076000610e50600185612b0a565b815260200190815260200160002060000160146101000a8154816001600160501b0302191690836001600160501b031602179055505b50505050565b600180546001600160a01b038381166001600160a01b0319831681179093556040519116919082907f8292fce18fa69edf4db7b94ea2e58241df0ae57f97e0a6c9b29067028bf92d7690600090a35050565b61071381611359565b61071381611564565b6000306001600160a01b03166393ce53436040518163ffffffff1660e01b8152600401602060405180830381865afa158015610f30573d6000803e3d6000fd5b505050506040513d601f19601f82011682018060405250810190610f549190612b1d565b905068056bc75e2d63100000811015610fa35760405162461bcd60e51b81526020600482015260116024820152704e6f7420656e6f75676820746f6b656e7360781b60448201526064016101bc565b61071361182d565b6000808054610fb990612ab0565b80601f0160208091040260200160405190810160405280929190818152602001828054610fe590612ab0565b80156110325780601f1061100757610100808354040283529160200191611032565b820191906000526020600020905b81548152906001019060200180831161101557829003601f168201915b5050505050905081600090816110489190612b86565b507fc9c7c3fe08b88b4df9d4d47ef47d2c43d55c025a0ba88ca442580ed9e7348a168183604051610b68929190612c45565b670de0b6b3a76400008110156110ca5760405162461bcd60e51b81526020600482015260156024820152744d696e207374616b6520616d6f756e74206973203160581b60448201526064016101bc565b61071381611954565b60606110f88383604051806060016040528060278152602001612e1560279139611cf3565b9392505050565b6001600160a01b038116600090815260066020526040812060010154810361114057506001600160a01b031660009081526006602052604090206002015490565b61114982611d6b565b6001600160a01b038316600090815260066020526040902060020154610a1a9190612c6a565b6001546001600160a01b031633146111995760405162461bcd60e51b81526004016101bc90612992565b60085481116111b557806008546111b09190612b0a565b6111b8565b60005b6008556112087f00000000000000000000000000000000000000000000000000000000000000003033847f0000000000000000000000000000000000000000000000000000000000000000611fa0565b60007f00000000000000000000000000000000000000000000000000000000000000006001600160a01b031673eeeeeeeeeeeeeeeeeeeeeeeeeeeeeeeeeeeeeeee14611274577f0000000000000000000000000000000000000000000000000000000000000000611296565b7f00000000000000000000000000000000000000000000000000000000000000005b600480546040516370a0823160e01b815230928101929092529192506001600160a01b038316906370a0823190602401602060405180830381865afa1580156112e3573d6000803e3d6000fd5b505050506040513d601f19601f820116820180604052508101906113079190612b1d565b10156113555760405162461bcd60e51b815260206004820152601e60248201527f5374616b696e6720746f6b656e2062616c616e636520726564756365642e000060448201526064016101bc565b5050565b6001546001600160a01b031633146113835760405162461bcd60e51b81526004016101bc90612992565b60007f00000000000000000000000000000000000000000000000000000000000000006001600160a01b031673eeeeeeeeeeeeeeeeeeeeeeeeeeeeeeeeeeeeeeee146113ef577f0000000000000000000000000000000000000000000000000000000000000000611411565b7f00000000000000000000000000000000000000000000000000000000000000005b6040516370a0823160e01b81523060048201529091506000906001600160a01b038316906370a0823190602401602060405180830381865afa15801561145b573d6000803e3d6000fd5b505050506040513d601f19601f8201168201806040525081019061147f9190612b1d565b90506114ce7f00000000000000000000000000000000000000000000000000000000000000003330867f0000000000000000000000000000000000000000000000000000000000000000611fa0565b6040516370a0823160e01b815230600482015260009082906001600160a01b038516906370a0823190602401602060405180830381865afa158015611517573d6000803e3d6000fd5b505050506040513d601f19601f8201168201806040525081019061153b9190612b1d565b6115459190612b0a565b905080600860008282546115599190612c6a565b909155505050505050565b33600090815260066020526040812060010154908290036115be5760405162461bcd60e51b81526020600482015260146024820152735769746864726177696e67203020746f6b656e7360601b60448201526064016101bc565b8181101561160e5760405162461bcd60e51b815260206004820152601c60248201527f5769746864726177696e67206d6f7265207468616e207374616b65640000000060448201526064016101bc565b611617336120f5565b818103611766576000600580548060200260200160405190810160405280929190818152602001828054801561167657602002820191906000526020600020905b81546001600160a01b03168152600190910190602001808311611658575b5050505050905060005b815181101561176357336001600160a01b03168282815181106116a5576116a5612a2e565b60200260200101516001600160a01b03160361175b5781600183516116ca9190612b0a565b815181106116da576116da612a2e565b6020026020010151600582815481106116f5576116f5612a2e565b9060005260206000200160006101000a8154816001600160a01b0302191690836001600160a01b03160217905550600580548061173457611734612c7d565b600082815260209020810160001990810180546001600160a01b0319169055019055611763565b600101611680565b50505b3360009081526006602052604081206001018054849290611788908490612b0a565b9250508190555081600460008282546117a19190612b0a565b909155506117f490507f00000000000000000000000000000000000000000000000000000000000000003033857f0000000000000000000000000000000000000000000000000000000000000000611fa0565b60405182815233907f6352c5382c4a4578e712449ca65e83cdb392d045dfcf1cad9615189db2da244b9060200160405180910390a25050565b600061183833611d6b565b336000908152600660205260409020600201546118559190612c6a565b9050806000036118945760405162461bcd60e51b815260206004820152600a6024820152694e6f207265776172647360b01b60448201526064016101bc565b33600090815260066020526040812080546001600160801b031916426001600160501b0316178155600201556003546118d8906001906001600160401b03166129d0565b33600081815260066020526040902080546001600160401b0393909316600160801b0267ffffffffffffffff60801b199093169290921790915561191c90826121c5565b60405181815233907ffc30cddea38e2bf4d6ea7d3f9ed3b6ad7f176419f4963bd81318067a4aee73fe9060200160405180910390a250565b806000036119975760405162461bcd60e51b815260206004820152601060248201526f5374616b696e67203020746f6b656e7360801b60448201526064016101bc565b600073eeeeeeeeeeeeeeeeeeeeeeeeeeeeeeeeeeeeeeed197f00000000000000000000000000000000000000000000000000000000000000006001600160a01b031601611a0557507f0000000000000000000000000000000000000000000000000000000000000000611a64565b3415611a415760405162461bcd60e51b815260206004820152600b60248201526a056616c7565206e6f7420360ac1b60448201526064016101bc565b507f00000000000000000000000000000000000000000000000000000000000000005b3360009081526006602052604090206001015415611a8a57611a85336120f5565b611b42565b6005805460018082019092557f036b6384b5eca791c62761152d0c79bb0604c104a5fb6f4eb0703f3154bb3db00180546001600160a01b03191633908117909155600090815260066020526040902080546001600160801b0319166001600160501b034216179055600354611b0891906001600160401b03166129d0565b33600090815260066020526040902080546001600160401b0392909216600160801b0267ffffffffffffffff60801b199092169190911790555b6040516370a0823160e01b81523060048201526000906001600160a01b038316906370a0823190602401602060405180830381865afa158015611b89573d6000803e3d6000fd5b505050506040513d601f19601f82011682018060405250810190611bad9190612b1d565b9050611bfc7f00000000000000000000000000000000000000000000000000000000000000003330867f0000000000000000000000000000000000000000000000000000000000000000611fa0565b6040516370a0823160e01b815230600482015260009082906001600160a01b038516906370a0823190602401602060405180830381865afa158015611c45573d6000803e3d6000fd5b505050506040513d601f19601f82011682018060405250810190611c699190612b1d565b611c739190612b0a565b33600090815260066020526040812060010180549293508392909190611c9a908490612c6a565b925050819055508060046000828254611cb39190612c6a565b909155505060405181815233907fb539ca1e5c8d398ddf1c41c30166f33404941683be4683319b57669a93dad4ef9060200160405180910390a250505050565b6060600080856001600160a01b031685604051611d109190612c93565b600060405180830381855af49150503d8060008114611d4b576040519150601f19603f3d011682016040523d82523d6000602084013e611d50565b606091505b5091509150611d6186838387612228565b9695505050505050565b6001600160a01b0381166000908152600660209081526040808320815160808101835281546001600160801b03811682526001600160401b03600160801b9091048116948201859052600183015493820193909352600290910154606082015260035490929116815b81811015611f29576000818152600760209081526040808320815160a08101835281546001600160501b038082168352600160501b8204811695830195909552600160a01b9004909316918301919091526001810154606083015260020154608082015290848303611e47578551611e56565b81602001516001600160501b03165b6001600160801b03169050600082604001516001600160501b0316600003611e7e5742611e8d565b82604001516001600160501b03165b9050600080611eba89604001518585611ea69190612b0a565b611eb09190612caf565b86606001516122a9565b91509150600080611ef28c886080015189600001516001600160501b031686611ee39190612cdc565b611eed9190612cdc565b6122f4565b91509150838015611f005750815b611f0a578b611f0c565b805b9b5050505050505050600181611f229190612c6a565b9050611dd4565b50611f5e84611f597f0000000000000000000000000000000000000000000000000000000000000000600a612de2565b6122a9565b9450611f8d90507f0000000000000000000000000000000000000000000000000000000000000000600a612de2565b611f979085612cdc565b95945050505050565b81156120ee5773eeeeeeeeeeeeeeeeeeeeeeeeeeeeeeeeeeeeeeed196001600160a01b038616016120e257306001600160a01b0385160361204557604051632e1a7d4d60e01b8152600481018390526001600160a01b03821690632e1a7d4d90602401600060405180830381600087803b15801561201d57600080fd5b505af1158015612031573d6000803e3d6000fd5b5050505061204083838361230f565b6120ee565b306001600160a01b038416036120d75734821461207e576040516303e085f960e01b8152346004820152602481018390526044016101bc565b806001600160a01b031663d0e30db0836040518263ffffffff1660e01b81526004016000604051808303818588803b1580156120b957600080fd5b505af11580156120cd573d6000803e3d6000fd5b50505050506120ee565b61204083838361230f565b6120ee858585856123d4565b5050505050565b600061210082611d6b565b6001600160a01b038316600090815260066020526040812060020180549293508392909190612130908490612c6a565b90915550506001600160a01b038216600090815260066020526040902080546001600160801b0319166001600160501b03421617905560035461217e906001906001600160401b03166129d0565b6001600160a01b03909216600090815260066020526040902080546001600160401b0393909316600160801b0267ffffffffffffffff60801b199093169290921790915550565b68056bc75e2d6310000081101561221e5760405162461bcd60e51b815260206004820152601a60248201527f4d696e207265776172642077697468647261772069732031303000000000000060448201526064016101bc565b611355828261242c565b60608315612297578251600003612290576001600160a01b0385163b6122905760405162461bcd60e51b815260206004820152601d60248201527f416464726573733a2063616c6c20746f206e6f6e2d636f6e747261637400000060448201526064016101bc565b50816122a1565b6122a183836124e3565b949350505050565b600080836000036122c057506001905060006122ed565b838302838582816122d3576122d3612cc6565b04146122e65760008092509250506122ed565b6001925090505b9250929050565b600080838301848110156122e65760008092509250506122ed565b6000836001600160a01b03168360405160006040518083038185875af1925050503d806000811461235c576040519150601f19603f3d011682016040523d82523d6000602084013e612361565b606091505b5050905080610e8657816001600160a01b031663d0e30db0846040518263ffffffff1660e01b81526004016000604051808303818588803b1580156123a557600080fd5b505af11580156123b9573d6000803e3d6000fd5b50610e86935050506001600160a01b0384169050858561250d565b816001600160a01b0316836001600160a01b03160315610e8657306001600160a01b03841603612417576124126001600160a01b038516838361250d565b610e86565b610e866001600160a01b038516848484612575565b60085481111561247e5760405162461bcd60e51b815260206004820152601860248201527f4e6f7420656e6f7567682072657761726420746f6b656e73000000000000000060448201526064016101bc565b80600860008282546124909190612b0a565b9091555061135590507f00000000000000000000000000000000000000000000000000000000000000003084847f0000000000000000000000000000000000000000000000000000000000000000611fa0565b8151156124f35781518083602001fd5b8060405162461bcd60e51b81526004016101bc919061297f565b6040516001600160a01b03831660248201526044810182905261257090849063a9059cbb60e01b906064015b60408051601f198184030181529190526020810180516001600160e01b03166001600160e01b0319909316929092179091526125ad565b505050565b6040516001600160a01b0380851660248301528316604482015260648101829052610e869085906323b872dd60e01b90608401612539565b6000612602826040518060400160405280602081526020017f5361666545524332303a206c6f772d6c6576656c2063616c6c206661696c6564815250856001600160a01b031661267f9092919063ffffffff16565b80519091501561257057808060200190518101906126209190612df2565b6125705760405162461bcd60e51b815260206004820152602a60248201527f5361666545524332303a204552433230206f7065726174696f6e20646964206e6044820152691bdd081cdd58d8d9595960b21b60648201526084016101bc565b60606122a1848460008585600080866001600160a01b031685876040516126a69190612c93565b60006040518083038185875af1925050503d80600081146126e3576040519150601f19603f3d011682016040523d82523d6000602084013e6126e8565b606091505b50915091506126f987838387612228565b979650505050505050565b6000806040838503121561271757600080fd5b50508035926020909101359150565b60006020828403121561273857600080fd5b81356001600160a01b03811681146110f857600080fd5b60006020828403121561276157600080fd5b5035919050565b634e487b7160e01b600052604160045260246000fd5b60006020828403121561279057600080fd5b81356001600160401b03808211156127a757600080fd5b818401915084601f8301126127bb57600080fd5b8135818111156127cd576127cd612768565b604051601f8201601f19908116603f011681019083821181831017156127f5576127f5612768565b8160405282815287602084870101111561280e57600080fd5b826020860160208301376000928101602001929092525095945050505050565b6000806020838503121561284157600080fd5b82356001600160401b038082111561285857600080fd5b818501915085601f83011261286c57600080fd5b81358181111561287b57600080fd5b8660208260051b850101111561289057600080fd5b60209290920196919550909350505050565b60005b838110156128bd5781810151838201526020016128a5565b50506000910152565b600081518084526128de8160208601602086016128a2565b601f01601f19169290920160200192915050565b600060208083016020845280855180835260408601915060408160051b87010192506020870160005b8281101561294957603f198886030184526129378583516128c6565b9450928501929085019060010161291b565b5092979650505050505050565b60006020828403121561296857600080fd5b81356001600160501b03811681146110f857600080fd5b6020815260006110f860208301846128c6565b6020808252600e908201526d139bdd08185d5d1a1bdc9a5e995960921b604082015260600190565b634e487b7160e01b600052601160045260246000fd5b6001600160401b038281168282160390808211156129f0576129f06129ba565b5092915050565b6020808252601f908201527f5265656e7472616e637947756172643a207265656e7472616e742063616c6c00604082015260600190565b634e487b7160e01b600052603260045260246000fd5b6000808335601e19843603018112612a5b57600080fd5b8301803591506001600160401b03821115612a7557600080fd5b6020019150368190038213156122ed57600080fd5b8284823760609190911b6bffffffffffffffffffffffff19169101908152601401919050565b600181811c90821680612ac457607f821691505b602082108103612ae457634e487b7160e01b600052602260045260246000fd5b50919050565b6001600160401b038181168382160190808211156129f0576129f06129ba565b81810381811115610a1a57610a1a6129ba565b600060208284031215612b2f57600080fd5b5051919050565b601f821115612570576000816000526020600020601f850160051c81016020861015612b5f5750805b601f850160051c820191505b81811015612b7e57828155600101612b6b565b505050505050565b81516001600160401b03811115612b9f57612b9f612768565b612bb381612bad8454612ab0565b84612b36565b602080601f831160018114612be85760008415612bd05750858301515b600019600386901b1c1916600185901b178555612b7e565b600085815260208120601f198616915b82811015612c1757888601518255948401946001909101908401612bf8565b5085821015612c355787850151600019600388901b60f8161c191681555b5050505050600190811b01905550565b604081526000612c5860408301856128c6565b8281036020840152611f9781856128c6565b80820180821115610a1a57610a1a6129ba565b634e487b7160e01b600052603160045260246000fd5b60008251612ca58184602087016128a2565b9190910192915050565b8082028115828204841417610a1a57610a1a6129ba565b634e487b7160e01b600052601260045260246000fd5b600082612cf957634e487b7160e01b600052601260045260246000fd5b500490565b600181815b80851115612d39578160001904821115612d1f57612d1f6129ba565b80851615612d2c57918102915b93841c9390800290612d03565b509250929050565b600082612d5057506001610a1a565b81612d5d57506000610a1a565b8160018114612d735760028114612d7d57612d99565b6001915050610a1a565b60ff841115612d8e57612d8e6129ba565b50506001821b610a1a565b5060208310610133831016604e8410600b8410161715612dbc575081810a610a1a565b612dc68383612cfe565b8060001904821115612dda57612dda6129ba565b029392505050565b60006110f861ffff841683612d41565b600060208284031215612e0457600080fd5b815180151581146110f857600080fdfe416464726573733a206c6f772d6c6576656c2064656c65676174652063616c6c206661696c6564a26469706673582212203cdd7228d61696d09fe7e81337ca8859ab4389db9470a88db3b1da58aac91ee864736f6c63430008170033",
  "linkReferences": {},
  "deployedLinkReferences": {}
}